:0A093E00020C0000040E030900057E
:10090800E4FFFEE4FDFC0DBD00010CBC03F8BDE8EE
:0C091800F50FBF00010EBE03EABFE8E7C8
:0109240022B0
:10092500AF0D740D2FF8E6FE74072FF8E6B5060532
:090935007E007F0122E4FEFF2296
:0300030002088C64
:10088C00C0E0C0D075D000C000C004C005C006C018
:01089C000754
:10089D00E590540FFFBF0A027F00AE0D74082EF8CD
:1008AD00A607740E2EF8E6FF7408250DF8E66F60A6
:1008BD0009D2A1120908C2A18008050DE50D70022B
:0208CD00050C18
:0F08CF00D007D006D005D004D000D0D0D0E03272
:1008DE007590FFD288D2A8D2AFC2A0C2A1E50D6496
:1008EE0004450C70F8120925EF4E6002D2A01209D1
:0A08FE0008C2A0E4F50CF50D80E33C
:03000000020800F3
:0C080000787FE4F6D8FD758111020847EE
:10080C000208DEE493A3F8E493A34003F68001F21C
:10081C0008DFF48029E493A3F85407240CC8C333ED
:10082C00C4540F4420C8834004F456800146F6DFBC
:10083C00E4800B010204081020408090093EE47E05
:10084C00019360BCA3FF543F30E509541FFEE493B1
:10085C00A360010ECF54C025E060A840B8E493A378
:10086C00FAE493A3F8E493A3C8C582C8CAC583CAA3
:10087C00F0A3C8C582C8CAC583CADFE9DEE780BE5B
:0109480000AE
:00000001FF
