:100892008E0F8F10C3E49510F510E4950FF50FAF8E
:1008A20010EF54FFF58AAE0F7F00EEFF7E008F8CB3
:0A08B200D28C308DFDC28CC28D2265
:10085200750D00750E00E590540FF50DE59054F0FE
:10086200FFEFC4540FF50EE50DD394095007E50EC2
:10087200D394094008C2A6E47E007F0022D2A6E5F6
:0F0882000E75F00AA4FFEF250DF50CAF0C7E00EC
:010891002244
:1008000075080075092375B000D2A7D2A07590FFB6
:1008100075890120A7FD1208528E0A8F0BE50B4542
:100820000A7004C2A080ECD2A0AC08AD09AE0AAF39
:100830000B1208BC120892C2A0C37464950BFFE4AB
:10084000950AFEAC08AD091208BC12089280C4805B
:01085000C2E5
:010851002284
:030000000208CE25
:0C08CE00787FE4F6D8FD75811002080068
:1008BC00EF8DF0A4A8F0CF8CF0A428CE8DF0A42E50
:0208CC00FE220A
:00000001FF
